{
  "_format": "hh-sol-artifact-1",
  "contractName": "TwoFA",
  "sourceName": "contracts/Auth.sol",
  "abi": [
    {
      "inputs": [
        {
          "internalType": "string",
          "name": "_key",
          "type": "string"
        }
      ],
      "name": "set2FAKey",
      "outputs": [],
      "stateMutability": "nonpayable",
      "type": "function"
    },
    {
      "inputs": [
        {
          "internalType": "address",
          "name": "",
          "type": "address"
        }
      ],
      "name": "user2FAKey",
      "outputs": [
        {
          "internalType": "string",
          "name": "",
          "type": "string"
        }
      ],
      "stateMutability": "view",
      "type": "function"
    },
    {
      "inputs": [
        {
          "internalType": "address",
          "name": "user",
          "type": "address"
        },
        {
          "internalType": "string",
          "name": "_key",
          "type": "string"
        }
      ],
      "name": "verify2FA",
      "outputs": [
        {
          "internalType": "bool",
          "name": "",
          "type": "bool"
        }
      ],
      "stateMutability": "view",
      "type": "function"
    }
  ],
  "bytecode": "0x608060405234801561001057600080fd5b5061079a806100206000396000f3fe608060405234801561001057600080fd5b50600436106100415760003560e01c8063234a0bab146100465780633981f81814610076578063871547e3146100a6575b600080fd5b610060600480360381019061005b9190610397565b6100c2565b60405161006d9190610552565b60405180910390f35b610090600480360381019061008b919061036e565b610158565b60405161009d919061056d565b60405180910390f35b6100c060048036038101906100bb91906103eb565b6101f8565b005b6000816040516020016100d59190610524565b604051602081830303815290604052805190602001206000808573ffffffffffffffffffffffffffffffffffffffff1673ffffffffffffffffffffffffffffffffffffffff168152602001908152602001600020604051602001610139919061053b565b6040516020818303038152906040528051906020012014905092915050565b60006020528060005260406000206000915090508054610177906106ac565b80601f01602080910402602001604051908101604052809291908181526020018280546101a3906106ac565b80156101f05780601f106101c5576101008083540402835291602001916101f0565b820191906000526020600020905b8154815290600101906020018083116101d357829003601f168201915b505050505081565b806000803373ffffffffffffffffffffffffffffffffffffffff1673ffffffffffffffffffffffffffffffffffffffff168152602001908152602001600020908051906020019061024a92919061024e565b5050565b82805461025a906106ac565b90600052602060002090601f01602090048101928261027c57600085556102c3565b82601f1061029557805160ff19168380011785556102c3565b828001600101855582156102c3579182015b828111156102c25782518255916020019190600101906102a7565b5b5090506102d091906102d4565b5090565b5b808211156102ed5760008160009055506001016102d5565b5090565b60006103046102ff846105c0565b61058f565b90508281526020810184848401111561031c57600080fd5b61032784828561066a565b509392505050565b60008135905061033e8161074d565b92915050565b600082601f83011261035557600080fd5b81356103658482602086016102f1565b91505092915050565b60006020828403121561038057600080fd5b600061038e8482850161032f565b91505092915050565b600080604083850312156103aa57600080fd5b60006103b88582860161032f565b925050602083013567ffffffffffffffff8111156103d557600080fd5b6103e185828601610344565b9150509250929050565b6000602082840312156103fd57600080fd5b600082013567ffffffffffffffff81111561041757600080fd5b61042384828501610344565b91505092915050565b6104358161063e565b82525050565b600061044682610605565b6104508185610610565b9350610460818560208601610679565b6104698161073c565b840191505092915050565b600061047f82610605565b6104898185610621565b9350610499818560208601610679565b80840191505092915050565b600081546104b2816106ac565b6104bc8186610621565b945060018216600081146104d757600181146104e85761051b565b60ff1983168652818601935061051b565b6104f1856105f0565b60005b83811015610513578154818901526001820191506020810190506104f4565b838801955050505b50505092915050565b60006105308284610474565b915081905092915050565b600061054782846104a5565b915081905092915050565b6000602082019050610567600083018461042c565b92915050565b60006020820190508181036000830152610587818461043b565b905092915050565b6000604051905081810181811067ffffffffffffffff821117156105b6576105b561070d565b5b8060405250919050565b600067ffffffffffffffff8211156105db576105da61070d565b5b601f19601f8301169050602081019050919050565b60008190508160005260206000209050919050565b600081519050919050565b600082825260208201905092915050565b600081905092915050565b60006106378261064a565b9050919050565b60008115159050919050565b600073ffffffffffffffffffffffffffffffffffffffff82169050919050565b82818337600083830152505050565b60005b8381101561069757808201518184015260208101905061067c565b838111156106a6576000848401525b50505050565b600060028204905060018216806106c457607f821691505b602082108114156106d8576106d76106de565b5b50919050565b7f4e487b7100000000000000000000000000000000000000000000000000000000600052602260045260246000fd5b7f4e487b7100000000000000000000000000000000000000000000000000000000600052604160045260246000fd5b6000601f19601f8301169050919050565b6107568161062c565b811461076157600080fd5b5056fea2646970667358221220d7ec3b6090d2d63837ecb53db0678eadf619bc1f444b9b633e5d6d0a705d9fe864736f6c63430008000033",
  "linkReferences": {},
  "deployedLinkReferences": {}
}