{
  "_format": "hh-sol-artifact-1",
  "contractName": "Auth",
  "sourceName": "contracts/Auth - Copy.sol",
  "abi": [
    {
      "inputs": [],
      "name": "authenticate",
      "outputs": [],
      "stateMutability": "nonpayable",
      "type": "function"
    },
    {
      "inputs": [
        {
          "internalType": "address",
          "name": "user",
          "type": "address"
        }
      ],
      "name": "isAuthenticated",
      "outputs": [
        {
          "internalType": "bool",
          "name": "",
          "type": "bool"
        }
      ],
      "stateMutability": "view",
      "type": "function"
    }
  ],
  "bytecode": "0x608060405234801561001057600080fd5b50610216806100206000396000f3fe608060405234801561001057600080fd5b50600436106100365760003560e01c8063380c7a671461003b578063d15d415014610045575b600080fd5b610043610075565b005b61005f600480360381019061005a9190610138565b6100ce565b60405161006c9190610170565b60405180910390f35b60016000803373ffffffffffffffffffffffffffffffffffffffff1673ffffffffffffffffffffffffffffffffffffffff16815260200190815260200160002060006101000a81548160ff021916908315150217905550565b60008060008373ffffffffffffffffffffffffffffffffffffffff1673ffffffffffffffffffffffffffffffffffffffff16815260200190815260200160002060009054906101000a900460ff169050919050565b600081359050610132816101c9565b92915050565b60006020828403121561014a57600080fd5b600061015884828501610123565b91505092915050565b61016a8161019d565b82525050565b60006020820190506101856000830184610161565b92915050565b6000610196826101a9565b9050919050565b60008115159050919050565b600073ffffffffffffffffffffffffffffffffffffffff82169050919050565b6101d28161018b565b81146101dd57600080fd5b5056fea264697066735822122089227e6502b5463a7a6b7182ee225ec1c7e752a290b1fec40aea58a8216eaad764736f6c63430008000033",
  "linkReferences": {},
  "deployedLinkReferences": {}
}